:020000040800F2
:1000000000070020F101000899240008512400088D
:10001000792400085124000871240008F301000825
:10002000F3010008F3010008F3010008453500085A
:10003000F3010008F3010008F3010008F3010008D0
:10004000F3010008F3010008F3010008F3010008C0
:10005000F3010008F30100080D43000835430008D0
:100060005D43000885430008AD430008F301000824
:10007000F3010008F3010008F3010008F301000890
:10008000F3010008F3010008F3010008052400084B
:100090003124000841240008F3010008D54300087A
:1000A000F3010008F3010008F3010008F301000860
:1000B000BD440008F3010008F3010008F301000843
:1000C000F3010008F3010008F3010008F301000840
:1000D000F3010008F3010008A9440008F301000837
:1000E00039440008F3010008F3010008F301000897
:1000F000F3010008F3010008F3010008F301000810
:10010000F3010008F3010008F3010008F3010008FF
:10011000F3010008F3010008F3010008F3010008EF
:10012000F3010008F3010008F3010008F3010008DF
:10013000F3010008F3010008F3010008F3010008CF
:10014000F3010008F3010008F3010008F3010008BF
:10015000F3010008F3010008F3010008F3010008AF
:10016000F3010008F3010008F3010008F30100089F
:10017000F3010008F3010008F3010008F30100088F
:10018000F3010008F3010008F3010008F30100087F
:10019000F3010008F3010008F3010008F30100086F
:1001A000F3010008F3010008F3010008F30100085F
:1001B000F3010008F3010008F3010008F30100084F
:1001C000F3010008F3010008F3010008F30100083F
:1001D000F3010008F3010008F3010008F30100082F
:1001E000A90F00080000000000000000000000004F
:1001F00002E000F000F8FEE772B6374880F30888A6
:10020000364880F3098836483649086040F20000D5
:10021000CCF200004EF63471CEF200010860BFF35C
:100220004F8FBFF36F8F40F20000C0F2F0004EF628
:100230008851CEF200010860BFF34F8FBFF36F8F7C
:100240004FF00000E1EE100A4EF63C71CEF20001D4
:100250000860062080F31488BFF36F8F03F060FE00
:1002600003F0F2FE4FF055301F491B4A91423CBF4C
:1002700041F8040BFAE71D49184A91423CBF41F886
:10028000040BFAE71A491B4A1B4B9A423EBF51F82E
:10029000040B42F8040BF8E700201849184A914271
:1002A0003CBF41F8040BFAE703F03EFE03F01AFFEF
:1002B000144C154DAC4203DA54F8041B8847F9E797
:1002C00000F042F8114C124DAC4203DA54F8041B12
:1002D0008847F9E703F026BE00070020002300202E
:1002E0000000000808ED00E00001002000070020E9
:1002F000D84C000800230020802300208023002009
:10030000C44F0020E0010008E4010008E4010008F7
:10031000E40100082DE9F04F2DED108AC1F80CD052
:10032000C3689D46BDEC108ABDE8F08F002383F3BF
:1003300011882846A047002003F060FAFEE703F08A
:10034000E9F900DFFEE70000F8B500F03FFE03F03A
:1003500081FD074603F0D0FD064600283DD12B4B1A
:100360009F423AD001339F423AD0294B27F0FF02F7
:100370009A4238D1F8B200F033FC354642F210749C
:1003800000F034FC08B10024254601F049F970B3AF
:10039000032000F043F80024254636B11D4B9F4250
:1003A00003D003F0A1FD00242546002003F05CFDEE
:1003B000194B1B691B041FD40DB100F045F800F068
:1003C00083FC02F071F80546C4B102F06DF8401BE1
:1003D000A04213D900F038F8F3E735460024CFE700
:1003E00004460125CCE705464FF47A74C8E7B4F516
:1003F0007A7F08BF0125D0E70024E0E700F0ACFCDD
:100400004FF47A7003F000FADEE700BF010007B096
:10041000000008B0263A09B000040240084B1870EA
:1004200003280CD8DFE800F008050208022000F0DD
:100430002BBE022000F01EBE024B00225A60704705
:10044000802300208423002010B501F0E9F830B1AA
:10045000204B03221A70204B00225A6010BD1F4B04
:100460001F4A1C4619680131F8D004339342F9D170
:1004700062681C4B9A42F1D91B4B9B6803F10063E5
:1004800003F580339A42E9D203F002FD03F014FD34
:10049000002000F0B5FD0220FFF7C0FF134B1A6CDF
:1004A00000221A64196E1A66196E596C5A64596ED4
:1004B0005A665B6E72B64FF0E0233021C3F8084DE8
:1004C000D4E9003281F311889D4683F308881047F0
:1004D000C4E700BF8023002084230020000001081F
:1004E00020000108FFFF0008002300200038024020
:1004F000094A136849F2690099B21B0C00FB0133E9
:100500001360064B186844F2506182B2000C01FB84
:100510000200186080B270471823002014230020C6
:1005200010B500211022044600F0CAFD034B03CB96
:10053000206061601868A06010BD00BF107AFF1FC6
:10054000F0B5ADF54F7D6CAC4FF4C47207460D4667
:100550002046002100F0B4FD01F0A6FF244B4FF42B
:100560007A72B0FBF2F0186093E80700022384E887
:1005700007000DF5E9702382FFF7D2FF4FF4A24385
:100580001C49238406A804F0AFFA192384F83231F9
:100590000DF2E32206AB0DF1300C1E4603CE66458C
:1005A00010605160334602F10802F6D133781370BF
:1005B0000DAE31460122204600F0CEFD002303930C
:1005C000AB7E029305F11903019380B20123CDE9BB
:1005D00004600093E97E04A3D3E90023384602F0C7
:1005E00081FB0DF54F7DF0BD9E6AC421818A46EEE8
:1005F0008C230020F84A00082DE9F0412C4C237A86
:10060000DAB080460D465BBB27A9284600F0CAFE3B
:100610000746002842D19DF89D60C82E3ED801466D
:100620004FF4A662204600F04BFD4FF48073C4F8EF
:10063000F8314FF40073C4F80C334FF44073C4F82E
:10064000203432460DF19E0104F1090000F026FD30
:1006500026449DF89C30777223720BB9EB7E23728F
:100660008122002106AC27A800F02AFD01222146A4
:1006700027A800F0DDFE00230393AB7E029305F173
:10068000190380B201932823CDE904400093E97E49
:1006900005A3D3E90023404602F024FB5AB0BDE88D
:1006A000F08100BFAFF3008026417272DF25D7B71B
:1006B000D4330020F0B5254E4FF48A7505FB006554
:1006C000F1B096F8D83085F8DC300024D8222146E5
:1006D00085F8E8403AA800F0F3FC06F1090000F0C4
:1006E000E7FCD5F8E4308DF8F000C2B206AF06F1B1
:1006F00009010DF1F100CDE93A3400F0CFFC3946A3
:1007000001223AA800F0CAFE80B2CDE904700823A5
:100710000127CDE9023706F1D80301933023009376
:10072000317A0B4807A3D3E9002302F0DBFAA04299
:1007300006DD01F0B9FEC5F8E000384671B0F0BD45
:100740002046FBE778F6339F93CACD8DD433002043
:10075000A43300202DE9F0411D4D1E4E1E4F86B0E2
:10076000284602F0EBFA034658B30024CDE90344CF
:10077000ADF81440027B8DF814209968406802940B
:1007800003AA03C21B68DFF8548043F000430293BE
:1007900001F08CFE821941F10003009402A9384651
:1007A00001F020F9A04205DD284602F0CBFA88F8D6
:1007B0000040D5E798F80030072B05D8013388F8BA
:1007C000003006B0BDE8F081014802F0BBFAF8E75E
:1007D000A433002040420F001039002009390020C6
:1007E00070B50D4614461E4602F0D8F950B9022ED7
:1007F00010D1012C0ED112A3D3E90023C5E90023A7
:10080000012007E0282C10D005D8012C09D0052C98
:100810000FD0002070BD302CFBD10BA3D3E90023F7
:10082000ECE70BA3D3E90023E8E70BA3D3E900230C
:10083000E4E70BA3D3E90023E0E700BFAFF30080B8
:10084000401DA12026812A0B78F6339F93CACD8DB7
:100850009E6AC421818A46EE26417272DF25D7B78F
:10086000F017304A39059E5638B505460E4C002122
:10087000013500F0E7FBA4F82C55B4F82C0500F086
:10088000C9FB78B1B4F82C0500F0D4FB014648B997
:10089000B4F82C0500F0D6FBB4F82C350133A4F8DD
:1008A0002C35EAE738BD00BFD433002010B50A4B21
:1008B0000A4A1A6003F5805393F870203AB9DC6E47
:1008C0002CB1204600F024FF204601F061F8BDE87D
:1008D0001040034800F01CBF10390020504B0008A6
:1008E000684900202DE9F04F8FB000AF05460C4657
:1008F00002F054F900284BD1237E022B1BD1E38A4E
:10090000012B18D101F0D0FD0646FFF7F1FD03469B
:100910004FF4C870DFF8C482B3FBF0F206F5167628
:1009200002FB103316FA83F3C8F80030E37E33B9C4
:10093000A34B00221A703C37BD46BDE8F08F07F18B
:100940002401204600F0E2FC0028F4D107F1140055
:10095000FFF7E6FD97F8264007F11401224607F15C
:10096000270004F08FF80028E2D10F2C08D8944B10
:100970001C70D8F80030A3F51673C8F80030DAE719
:1009800097F824100029D6D0284602F0FFF8D2E7C5
:10099000E38A282B2BD010D8012B23D0052BCAD1CA
:1009A000BFF34F8F8749884BCA6802F4E062134354
:1009B000CB60BFF34F8F00BFFDE7302BBBD1834E21
:1009C000E17E327A9142B6D1607E3146002291F8C2
:1009D000DC50854200F0A5800132042A01F58A71BD
:1009E000F5D1A8E721462846FFF7AAFDA3E721464F
:1009F0002846FFF701FE9EE7B2F8EC507B6005F158
:100A000003094FEA99094FEA8902D11DC908A8EBE9
:100A1000C1039D46EB460021584600F051FB04F10E
:100A2000EE012A463144584600F038FB7B6813B982
:100A3000012000F0E5FA96F8D20000F0EBFA044647
:100A400030B9307200F006FB204600F0D9FAB0E071
:100A5000D6F8D4203AB996F8D200B6F82C258242BE
:100A600001D8FFF701FFD6F8D4202A44944208D2D7
:100A700096F8D200B6F82C250130824201D8FFF753
:100A8000F3FE70685FFA89F2594600F021FB08B95D
:100A9000C54679E0726896F8D2002A447260D6F8AA
:100AA000D42005EB0209C6F8D49000F0B3FA8145D2
:100AB00009D396F8D220D6F8D4000132001B86F86C
:100AC000D220C6F8D400FF2D0FD80024347200F0D5
:100AD000C1FA204600F094FA00F0A2FD3C4B1881C8
:100AE00008B9FFF7B1FCC54625E7BB6896F8D90001
:100AF0000AFB0362FB68D2F8E41082F8E83001F5E3
:100B00008061C2F8E030C2F8E410FFF7D3FDFFF7D0
:100B100021FE96F8D920013202F0030286F8D9208E
:100B2000B6E74FF48A7A0AFB02F505F1EA0131448F
:100B3000204600F0E7FCF86000287FF4FCAE354466
:100B4000012285F8E82001F0AFFCD5F8E020D6EDD1
:100B5000007ADFED206A801A192838BF192040F684
:100B6000B832904228BF1046B8EE677A07EE900A76
:100B7000F8EEE77A67EEA67ADFED176AE7EE267AF7
:100B8000FCEEE77AC6ED007A96F8D9307168BB6062
:100B90000AFB03F4321992F8E8505DB1D2F8E43060
:100BA0008B42E8463FF428AF002182F8E810C2F8F3
:100BB000E010C5467368064A9B0A01331381BAE602
:100BC0009D33002000ED00E00400FA05D43300203E
:100BD0008C230020CDCCCC3D6666663FA033002040
:100BE000014B1870704700BF9823002030B54FF0BC
:100BF00000542C4B22689A4285B023D1637D0BB3FD
:100C0000294A2A481370237D03724FF48073C0F879
:100C1000F8314FF40073C0F80C3300254FF44073E3
:100C2000C0F820342249C0F8E450C922093000F04D
:100C300035FA2046E022294600F042FA01242046F7
:100C400005B030BD03F062F9044608B90024F6E7A8
:100C5000184A194D136C43F000731364AA6D174BB7
:100C60009A42F3D12B6E013B7E2BEFD8144A07CA70
:100C700001AB83E807001846032100F09FFC6B6D71
:100C800083424FF00003E1D12A6D8A4201BFAB6578
:100C9000054B2A6E1A7003BF0A4BEA6D1A601C4698
:100CA000CDE700BF9AAD44C598230020D43300207F
:100CB0001600002000380240006600405041A0B0FD
:100CC000586600401023002037B51A4D00F0A8FCEC
:100CD00002236B71184B288119681848012201F012
:100CE0007DFA00230193164B164900931648174BC3
:100CF0004FF4805201F022FF154B197811B11248C0
:100D000001F044FF01F0D0FB0446FFF7F1FB4FF484
:100D1000C873B0FBF3F202FB130304F5167010FA6C
:100D200083F00C4B186003F0E7F808B10F232B8118
:100D300003B030BD8C230020102300201039002088
:100D4000E10700089C230020A4330020E5080008E8
:100D500098230020A03300202DE9F04F2DED028BC9
:100D60000FF23829D9E90089834C93B00BAE9FED7F
:100D70007E8BFFF7EFFC814FDFF828A200230A9358
:100D8000ADF834300B9373604FF0000B5B468DED84
:100D9000008B01250DF11D0207A938468DF81C5066
:100DA0008DF81DB001F0C8F99DF81C30002B40F003
:100DB000A580204601F0F2FE0646002845D1704F7E
:100DC00001F072FB3B6898423FD301F06DFB824615
:100DD000FFF78EFB4FF4C873B0FBF3F202FB130373
:100DE0000AF5167010FA83F03860664F97F800B075
:100DF000CBF1100ABBF1000F14BF33462B465FFA4C
:100E00008AFA0EA88DF82830FFF78AFBBAF1060F90
:100E100028BF4FF0060A0EAB03EB0B0152460DF153
:100E2000290000F03BF90AAB0393182302930AF15F
:100E30000102554BD2B2CDE90053049220464CA397
:100E4000D3E9002301F0F0FE3E7001F02DFB4F4A84
:100E50004F4D1368C31AB3F57A7F2ED3106001F09B
:100E600025FB02460B46204601F076FF204601F0A6
:100E700095FE10B32B7A474E002B14BF0323022399
:100E8000737101F011FB0EAF4FF47A730122B0FBC6
:100E9000F3F039463060304600F010FA1823029320
:100EA0003D4B019380B240F25513CDE9037000939E
:100EB00042464B46204601F0B7FE2B7A93B101F033
:100EC000F3FA002607464FF48A7A95F8D9003044A1
:100ED00000F003000AFB005393F8E82092B30136B8
:100EE000042EF2D1C82002F08FFC2B7A002B7FF465
:100EF0003DAF13B0BDEC028BBDE8F08FDAF81430D3
:100F000083F48063CAF81430594610220EA800F00A
:100F1000D7F80DF11E0308AA0AA9384600F068FEAA
:100F200096E803000FAB83E803009DF834308DF89A
:100F300044300A9B0E930EA9DDE90823204602F0F7
:100F4000DFF821E7D3F8E02042B12B68FA2B38BF55
:100F5000FA23BA1A0533B2EB430FC0D3FFF7AAFB4B
:100F60000028BCD1BEE700BF000000000000000068
:100F7000401DA12026812A0BA43300201039002017
:100F8000A03300209D3300209C3300200439002032
:100F9000D43300208C23002008390020F1C6A7C1DB
:100FA000D068080F0000024008B5054800F0BEFEFA
:100FB000BDE80840034A0449002003F03FBD00BFDC
:100FC00010390020304A0020AD08000870B502F04A
:100FD000EFFD094E094D3080002428683388834294
:100FE00008D902F0DFFD2B6804440133B4F5803FDB
:100FF0002B60F2D370BD00BF244A0020F8490020C6
:1010000002F086BE00F10060920000F5803002F030
:1010100015BE0000054B1A68054B1B889B1A8342BE
:1010200002D9104402F0BEBD00207047F8490020EC
:10103000244A0020024B1B68184402F0BBBD00BFCD
:10104000F8490020024B1B68184402F0CBBD00BFDA
:10105000F8490020064991F8243033B10023086A8A
:1010600081F824300822FFF7CDBF0120704700BF70
:10107000FC490020022802BF024B4FF080629A61B7
:10108000704700BF00000240022802BF024B4FF42D
:1010900080629A61704700BF0000024010B50023D3
:1010A000934203D0CC5CC4540133F9E710BD000077
:1010B00003460246D01A12F9011B0029FAD17047E3
:1010C00002440346934202D003F8011BFAE770473B
:1010D0002DE9F8431F4D144695F82420074688460D
:1010E00052BBDFF870909CB395F824302BB92022C6
:1010F000FF2148462F62FFF7E3FF95F82400C0F177
:101100000802A24228BF2246D6B24146920005EB11
:101110008000FFF7C3FF95F82430A41B1E44F6B2ED
:10112000082E17449044E4B285F82460DBD1FFF721
:1011300091FF0028D7D108E02B6A03EB820383429A
:10114000CFD0FFF787FF0028CBD10020BDE8F88380
:101150000120FBE7FC4900202DE9F3470D4604463A
:1011600000219046284640F27912FFF7A9FF234656
:1011700020220021284601F065FF231D02222021A4
:10118000284601F05FFF631D03222221284601F05B
:1011900059FFA31D03222521284601F053FF04F126
:1011A000080310222821284601F04CFF04F1100307
:1011B00008223821284601F045FF04F111030822D6
:1011C0004021284601F03EFF04F112030822482185
:1011D000284601F037FF04F114032022502128464D
:1011E00001F030FF04F1180340227021284601F07D
:1011F00029FF04F120030822B021284601F022FF34
:1012000004F121030822B821284601F01BFF04F154
:101210002207C0263B46314608222846083601F000
:1012200011FFB6F5A07F07F10107F3D194F8323032
:101230008DF8073031460DF107030822284601F0EA
:1012400001FF002604F1330A9DF807304FEAC60972
:101250009E4209F5A47720D394F83231502B28BF51
:1012600050238DF80730B8F1000F08D139460DF141
:1012700007030722284601F0E5FE09F24F17002672
:1012800004F233149DF807309E4207EBC6010DD3DC
:101290000731C80802B0BDE8F0870AEB0603082250
:1012A0003946284601F0CEFE0136CDE7A3190822C3
:1012B000284601F0C7FE0136E4E7000013B50446F6
:1012C0000846002101602346C0F803102022019047
:1012D00001F0B8FE0198231D0222202101F0B2FE88
:1012E0000198631D0322222101F0ACFE0198A31D89
:1012F0000322252101F0A6FE019804F10803102223
:10130000282101F09FFE072002B010BDF7B5047F31
:1013100005460E462CB1838A122B02D9012003B058
:10132000F0BD0023194607220096284601F04EFD25
:10133000731C0093012200230721284601F046FD7B
:10134000D4B9B31C0093052223460821284601F096
:101350003DFD0D24B378102BE0D83746B278BB1B87
:10136000934210D32B7FA88A0734E408B3B9844290
:1013700094BF00200120D2E7AB8ADB00083BDB08EA
:10138000B3700824E6E7FB1C0093214600230822E3
:10139000284601F01BFD08340137DFE7201A18BF8B
:1013A0000120BCE7F7B5047F05460E462CB1838AC1
:1013B000CA2B02D9012003B0F0BD002319460096C4
:1013C0000822284601F002FD731CD4B908220093BC
:1013D00011462346284601F0F9FC10247378C82BE7
:1013E000E8D8012372785F1C013B934210D32B7F16
:1013F000A88A0734E408B3B9844294BF00200120CE
:10140000D9E7AB8ADB00083BDB0873700824E5E70B
:10141000F3190093214600230822284601F0D6FC48
:1014200008343B46DEE7201A18BF0120C3E700005E
:10143000F7B50D4604460021164628468122FFF7DF
:101440003FFE234608220021284601F0FBFD94F9C7
:1014500001206378002AB8BF7F238DF807309EB93A
:101460000DF1070307220821284601F0EBFD0F27A5
:10147000002602349DF807309E4207EBC60105D3D3
:101480000731C80803B0F0BD0827F1E7A319082207
:10149000284601F0D7FD0136ECE70000F7B50E460F
:1014A0000546002114463046CE22FFF709FE2B46A2
:1014B00028220021304601F0C5FD2B7AC82B28BF19
:1014C000C8238DF807308CB90DF1070308222821B5
:1014D000304601F0B7FD30242F469DF807207B1BD6
:1014E000934205D3E01DC00803B0F0BD2824F3E704
:1014F00007F1090321460822304601F0A3FD083414
:101500000137EAE7F7B5047F05460E4634B1838A12
:10151000B3F5827F02D9012003B0F0BD009601230C
:1015200010220021284601F051FCDCB9B31C0093C5
:10153000092223461021284601F048FC192473880B
:10154000B3F5807FE7D837467288BB1B934210D330
:101550002B7FA88A0734E408B3B9844294BF0020E3
:101560000120D9E7AB8ADB00103BDB087380102435
:10157000E5E73B1D0093214600230822284601F0A1
:1015800025FC08340137DFE7201A18BF0120C3E724
:1015900030B5094D0A4491420DD011F8013B584035
:1015A000082340F30004013B2C4013F0FF0384EABE
:1015B0005000F6D1EFE730BD2083B8EDF7B54FF01E
:1015C000FF33DFF854C0DFF854E000EB81011A4626
:1015D00088421CD050F8044B019401AF042417F842
:1015E000015B82EA05620825DB18164605F1FF3526
:1015F0005241002EBCBF83EA0C0382EA0E0215F0B2
:10160000FF05F1D1013C14F0FF04E8D1E0E7D84335
:10161000D14303B0F0BD00BF9336EAA9EBE1F0423D
:10162000F7B5354A106851686B4603C36A463349BB
:101630003348082303F036FA044688BB0A25314AAA
:10164000106851686B4603C36A462F492C4808232B
:1016500003F028FA0446002845D00369B3F5E02FCB
:1016600041D8B0F86620512A3DD1284A024402F1FF
:101670005C018B4237D35C3B214900209E1AFFF767
:1016800087FF3246074604F164010020FFF780FF20
:10169000A3689F4227D1E368984208BF002522E053
:1016A0000369B3F5E02F25D8428B512A20D1174A80
:1016B000024402F110018B4218D3103B1049002064
:1016C0009D1AFFF765FF2A46064604F1180100201F
:1016D000FFF75EFFA3689E4202D1E368984201D003
:1016E0000D25ACE70025284603B0F0BD1025A6E780
:1016F0000C25A4E70B25A2E7144B0008DCFF06002D
:10170000000001081D4B000890FF06000800FFF7CD
:1017100010B5037C044613B9006803F0ABF920460A
:1017200010BD00000023BFF35B8FC360BFF35B8F6E
:10173000BFF35B8F8360BFF35B8F7047BFF35B8F3B
:101740000068BFF35B8F704770B505460C30FFF73C
:10175000F5FF05F1080604463046FFF7EFFFA0420B
:1017600006D930466D68FFF7E9FF2544281A70BD99
:101770003046FFF7E3FF201AF9E7000070B5054691
:10178000406898B105F10800FFF7D8FF05F10C0695
:1017900004463046FFF7D2FF8442304694BF6D685E
:1017A0000025FFF7CBFF013C2C44201A70BD000040
:1017B00038B50C460546FFF7C7FFA04210D305F128
:1017C0000800FFF7BBFF04446868B4FBF0F100FBBE
:1017D0001144BFF35B8F0120AC60BFF35B8F38BD5A
:1017E0000020FCE72DE9F041144607460D46FFF7BF
:1017F000C5FF844228BF0446D4B1B84658F80C6BE4
:101800004046FFF79BFF3044286040467E68FFF764
:1018100095FF331A9C4203D86C600120BDE8F0812B
:101820006B60A41B3B68AB602044E8600220F5E7D6
:101830002046F3E738B50C460546FFF79FFFA04268
:1018400010D305F10C00FFF779FF04446868B4FB7E
:10185000F0F100FB1144BFF35B8F0120EC60BFF39C
:101860005B8F38BD0020FCE72DE9FF4188466946C3
:101870000746FFF7B7FF6C4606B204EBC606002525
:10188000B44209D06268206808EB0501FFF706FC46
:10189000636808341D44F3E729463846FFF7CAFF5A
:1018A000284604B0BDE8F081F8B505460C300F4677
:1018B000FFF744FF05F1080604463046FFF73EFFF8
:1018C000A042304688BF6C68FFF738FF201A3860A6
:1018D00020B130462C68FFF731FF2044F8BD0000EE
:1018E00073B5144606460D46FFF72EFF844228BF07
:1018F00004460190DCB101A93046FFF7D5FF019BFA
:1019000033B93268C5E90233C5E9002401200CE08F
:101910009C4238BF01942860019868608442F5D9E0
:101920003368AB60241AEC60022002B070BD204620
:10193000FBE700002DE9FF410F466946FFF7D0FFA6
:101940006C4600B204EBC0050026AC4209D0D4F8C6
:10195000048054F8081BB8194246FFF79FFB464421
:10196000F3E7304604B0BDE8F081000038B5054625
:10197000FFF7E0FF044601462846FFF719FF20461F
:1019800038BD00000121884238BF084603F05CB82A
:1019900008B103F06FB8704710B4026854681A4673
:1019A00023465DF8044B184700207047002070471D
:1019B00070470000002070470E20704700F58050EF
:1019C00090F8D800C0F340007047000000F5805048
:1019D00090F9E0007047000000F58050C0F8DC107E
:1019E00001207047F7B50C68BDF8207014F0005462
:1019F00073D10D7B082D70D8302585F31188456A89
:101A0000AE6876010CD4AC68240108D4AC6814F03C
:101A1000805460D184F31188204603B0F0BD0124C6
:101A20000E6804F1180C002EB8BFF6004FEA0C1C2B
:101A3000B4BF46F00406760545F80C600E680FFA50
:101A400084FC16F0804F18BF05EB0C1E05EB0C1C38
:101A50001EBFDEF8806146F00206CEF880610E7B84
:101A6000CCF8846105EB04158E68C5F88C614E686E
:101A7000C5F88861DCF8805145F00105CCF880514B
:101A800041F2780500EB441C660105EB4414AC44BC
:101A90000444CCE900230D46083401F10C0C55F840
:101AA00004EB44F804EB6545F9D12D8825808419B1
:101AB00004F5805407F0030594F8946026F00B06B3
:101AC000354384F89450002484F31188009700F083
:101AD0003BFD0120A1E70224A2E74FF0FF309CE785
:101AE00013B500F580540191E06EFFF747FE1F2803
:101AF0000AD90199E06E2022FFF7B6FEA0F120037B
:101B00005842584102B010BD0020FBE708B5302311
:101B100083F3118800F58050C06EFFF703FE0023A9
:101B200083F3118808BD00000022026082814260B8
:101B30008260704710B500220023C0E90023002313
:101B4000044603810C30FFF7EFFF204610BD000074
:101B5000F0B5054600F580500C4690F8D83013F0EB
:101B6000040FC3F3800108BF114661F3820380F8BC
:101B7000D83005EB441303F58453103389B01B7937
:101B8000D8074FEA44162FD582B319072ED46846DA
:101B9000FFF7D0FF05EB441303F5845303AA03F1C9
:101BA000080718685968144603C40833BB42224624
:101BB000F7D1186820609B88A380DDE90E23CDE96A
:101BC00000230123ADF808302B6869461B6C2846BA
:101BD0009847354405F5845510352B791A075CBFB5
:101BE00043F008032B7101E0002AF2D109B0F0BDE7
:101BF0002DE9F0479A4688B007468846914630233B
:101C000083F3118807F580546846FFF793FFE06E71
:101C1000FFF79AFD1F282AD9E06E20226946FFF7B8
:101C2000A5FE202823D103AD444605AB2E4603CEA6
:101C30009E4220606160354604F10804F6D13068A8
:101C40002060B388A380DDE90023C9E90023BDF843
:101C50000830AAF80030002383F3118853464A461F
:101C60004146384608B0BDE8F04700F02BBC0020E4
:101C700080F3118808B0BDE8F08700002DE9F84F27
:101C8000182204460F4604300021FFF719FA2046B7
:101C9000234B40F8283BFFF747FF04F13800FFF7DC
:101CA00049FF04F1580804F5825546461835304678
:101CB0002036FFF73FFFAE42F9D104F580554FF4CF
:101CC00080534FF00009C5E91739C5F85880012342
:101CD000EE6604F5875804F58456C5F8649085F8D7
:101CE000683085F87030183608F118084FF0000A8F
:101CF0004FF0000B46E908ABA6F11800FFF714FF00
:101D0000203646F8289C4645F4D185F8E07017B196
:101D1000044800F0C3FB044B63622046BDE8F88F23
:101D2000504B0008284B00080064004010B5044BDD
:101D3000197804464A1C1A70FFF7A0FF204610BD10
:101D40002C4A00202DE9F047002950D0294B2A4F7A
:101D5000B7FBF1F599428CBF0A231123581EB5FB3E
:101D6000F3FC03FB1C53C4B22BB102280346F5D885
:101D70000020BDE8F0870CF1FF36B6F5806FF7D292
:101D8000C4EBC40E0EF103034FEAE309C3F3C70328
:101D9000A4EB030809F1010A4FF47A755FFA88F0A1
:101DA00009FB05555AFA88F8B5FBF8F5B5F5617FDA
:101DB000C1BF0EF1FF33C3F3C703E01AC0B25C1C0E
:101DC00050FA84F40CFB04F4B7FBF4F4A142CFD135
:101DD000013BDBB20F2BCBD80138C0B20728C7D8E4
:101DE0000021107116809170D3700120C1E7084660
:101DF000BFE700BF3F420F0040787D0170B5054648
:101E00000E464FF47A746B6A5B6803F00103B342C9
:101E100007D04FF47A7001F0F7FC013CF3D1204673
:101E200070BD0120FCE7000070B5426A936913F0B1
:101E3000700F17D000230C4D936141F2900400EB1A
:101E40004312224411794E0709D5890707D5416A03
:101E500055F823608E60117941F00401117101334E
:101E6000032BECD170BD00BF3C4B000873B51D4681
:101E7000436A16469A68D207044609D59A68012132
:101E80009960C2F34002CDE900650021FFF760FED2
:101E9000636A9A68D1050BD59A684FF4807199608E
:101EA000C2F34022CDE9006501212046FFF750FE34
:101EB000636A9A68D2030BD59A684FF480319960AF
:101EC000C2F34042CDE9006502212046FFF740FE03
:101ED00004F58053D3F8DC0010B103681B69984700
:101EE000204602B0BDE87040FFF79EBFF8B504463B
:101EF000466A002977D106F10C073868800775D04B
:101F000006EB01153868D5F8B00110F0040FD5F8CC
:101F1000B0011ABFC00840F00040400DA062D5F8E3
:101F2000B0C11CF0020F1CBF40F08040A062D5F889
:101F3000B40106EB011100F00F0084F83400D1F871
:101F4000B80184F82C00D1F8B801000A84F82D00FB
:101F5000D1F8B801000C84F82E00D1F8B801000EB9
:101F600084F82F00D1F8BC0184F83000D1F8BC010E
:101F7000000A84F83100D1F8BC01000C84F832006A
:101F8000D1F8BC11090E84F833103821396004F1FE
:101F9000440004F1280104F1340551F8046B40F8C1
:101FA000046BA942F9D109880180C4E90E232146B6
:101FB0000023A4F8403051F8383B20461B6C98476A
:101FC00004F5805393F8D820D3F8DC0042F00402E3
:101FD00083F8D82010B103681B6998472046BDE8F4
:101FE000F840FFF721BF06F1100786E7F8BD0000B3
:101FF00010B5044600F05AFA02460B4652EA0301B5
:1020000002D0013A63F100030449086820B1214677
:10201000BDE81040FFF76ABF10BD00BF284A00208E
:10202000F0B5302181F31188DFF848E000F58351E5
:102030001831002441F2900C00EB441565442E79D0
:1020400077070ED4F6060CD5D1E9007697429E416B
:1020500007D2466A5EF82470B7602E7946F004060F
:102060002E710134032C01F12001E5D1002383F30B
:102070001188F0BD3C4B000808B5302383F311886C
:10208000FFF7D2FE002383F3118808BD2DE9F0414C
:10209000436A0446986800F0E050B0F1E05F0E46F5
:1020A00022D0F8B1302383F31188002504F584573A
:1020B00041F2900804EB451343441B791A0706D5F7
:1020C0000135032D07F12007F4D1012007E05B075C
:1020D000F6D43946304600F08BFA0028F0D10023C0
:1020E00083F31188BDE8F0810120FBE708B53023B8
:1020F00083F3118800F58050C06EFFF725FB0023A5
:1021000083F3118843090CBF0120002008BD0000A3
:10211000F8B51D46002313700F4606461446FFF718
:10212000E5FF80F00100387025B129463046FFF701
:10213000ADFF2070F8BD00002DE9B8410C461546F2
:102140001F46804600F0B2F90B462178024609B9D5
:10215000287850B14046FFF763FFFFF78DFF3B46FD
:102160002A462146FFF7D4FF0120BDE8B8810000D0
:1021700070B5302686F31188174B1A6C42F0007246
:102180001A641A6A42F000721A621A6A22F0007225
:102190001A62002383F3118800F5805494F8D83034
:1021A00013F0010516D1A9B186F31188032113207C
:1021B00001F026FA0321142001F022FA0321152050
:1021C00001F01EFA94F8D83043F0010384F8D830B7
:1021D00085F3118870BD00BF003802402DE9F0473B
:1021E00000F5805588B095F8E030012B044688460C
:1021F000164600F28280824F57F823200AB947F82A
:102200002300D7F800A0C4F81C8084F82060BAF13D
:10221000000F64D095F8E030012B70D001212046EA
:10222000FFF7A6FF302383F31188626A136823F057
:1022300002031360626A136843F001031360636A68
:1022400000275F6187F3118801212046FFF7D6FD43
:10225000002800F09580E86EFFF764FA04F58359D2
:10226000BA4609F11809202200216846FEF728FF26
:1022700002A8FFF759FCCDF818A06A4609EB07033E
:102280000DF1180E9446BCE80300F445186059603F
:10229000624603F10803F5D1DCF80000186020372E
:1022A0009CF804201A71602FDDD195F8D8306FF3B7
:1022B0008203002785F8D8306A4641462046ADF8AB
:1022C0000070ADF802708DF80470FFF73BFD636A93
:1022D00048BB4FF400421A6008B0BDE8F08741F2F5
:1022E000E800FFF74FFB814610B15146FFF7C6FCEF
:1022F000C7F80090B9F1000F8CD10020ECE73868E6
:1023000003681B6B98470146002887D13868FFF7A0
:102310002FFF3868036832465B68414698470028BB
:102320007FF47CAFE9E761221A609DF802309DF8E6
:1023300003201B06120402F4702203F040731343BF
:10234000BDF80020C2F3090213439DF804201205D2
:10235000022E02F4E0020CBF4FF0004100211343B3
:10236000626A0B43D361636A13225A61626A13681B
:1023700023F00103136039462046FFF73FFD08B9FB
:10238000636AA6E795F8E03093BB616AD1F8002252
:1023900042F00102C1F80022616AD1F8002222F461
:1023A0007C5222F00E02C1F80022616AD1F80022AC
:1023B00042F46062C1F80022626AC2F81432626AB2
:1023C000C2F80432626A41F6FF71C2F80C12626A06
:1023D000C2F84032626AC2F84432636A0122C3F82A
:1023E0001C22626AD2F8003223F00103C2F80032E4
:1023F00095F8D83043F0020385F8D8306CE700BF79
:10240000284A002008B500F051F850EA01030246BE
:1024100002D0421E61F10001044B186810B10B4656
:10242000FFF724FDBDE8084001F0C0B8284A0020AD
:1024300008B50020FFF7DCFDBDE8084001F0B6B8A4
:1024400008B50120FFF7D4FDBDE8084001F0AEB8A3
:1024500000B59BB0EFF3098168226846FEF71EFEC7
:10246000EFF30583014B9B6BFEE700BF00ED00E03F
:1024700008B5FFF7EDFF000000B59BB0EFF3098151
:1024800068226846FEF70AFEEFF30583014B5B6B9B
:10249000FEE700BF00ED00E0FEE700000FB408B566
:1024A000029801F061F9FEE701F072BC01F054BC42
:1024B0000139C9B202299EBF00EBC1000023C0E967
:1024C000013370472DE9F8431E461B885B0705461C
:1024D000884618D4044600F118094C4513D06368A7
:1024E0006BB12B682846DB6B98473388A768C1B26D
:1024F00043F0040360684246B8470834EDE7A36838
:10250000002BEED1F9E70120BDE8F88373B56C46E6
:1025100084E80600014600224E68D5B26EB98E6886
:102520005EB900EBC200021D94E80300013582E8A9
:1025300003001D70012002B070BD0132032A01F1B9
:102540000801E9D10020F6E72DE9F04F2DED028BCF
:1025500089B09FED258BBDF8508004468B4605461B
:1025600000F11809002708F0040AA94536D06B6865
:102570000BB9AB6863B1BAF1000F0BD123682046E9
:10258000DB6B98474346C1B25A46D5E90106B047CE
:102590000835EAE7002FFBD18DED008BADF8087010
:1025A0005B4603AA0BF1080C18685968174603C765
:1025B000083363453A46F7D1186838609B88BB807A
:1025C000FFF774FF0423ADF808302368CDE900015C
:1025D0001B6C6946204698470127D9E7012009B0BE
:1025E000BDEC028BBDE8F08F000000000000000091
:1025F00030B503680968DD0FB5EBD17F23F0604487
:1026000021F060424FEAD1700BD0002BB8BFA40C70
:102610000029B8BF920C944202D034BF01200020A0
:1026200030BD944205D1C1F38070C3F380738342FF
:10263000F6D194422CBF00200120F1E72DE9F041B2
:10264000456A15B94162BDE8F0814B6823F06047E7
:10265000C3F38A464FEAD37EC3F3807816EA230693
:1026600038BF3E46AC462B465A68BEEBD27F22F0BE
:1026700060440AD0002A18DAA40CB44217D19D4253
:102680000FD10D60DEE71346EEE7A74207D102F057
:102690008044C2F3807242450BD054B1EFE708D2B8
:1026A000EDE7CCF800100B60CDE7B44201D0B442A6
:1026B000E5D81A689C46002AE5D11960C3E70000F6
:1026C0002DE9F047089D01F007044FEAD5082244A0
:1026D00005F0070500EBD1004FF47F49944201D18A
:1026E000BDE8F08704F0070705F0070A57453E46A6
:1026F00038BF5646C6F10806111B8E4228BF0E464B
:10270000E10808EBD50E415C13F80EC0B94029FA78
:1027100006F721FA0AF1FFB28CEA010147FA0AF73B
:1027200039408CEA010C03F80EC034443544D5E737
:1027300080EA0120082341F2210201B24000002971
:1027400080B203F1FF33B8BF504013F0FF03F4D160
:102750007047000038B50C468D18A54200D138BD31
:1027600014F8011BFFF7E4FFF7E7000042684AB1E5
:10277000136843604389818901339BB29942438145
:1027800038BF83811046704770B588B02022044658
:102790000D4668460021FEF793FC20460495FFF79E
:1027A000E5FF024658B16B46054608AE1C4603CC11
:1027B000B44228606960234605F10805F6D1104649
:1027C00008B070BD082817D909280CD00A280CD0E9
:1027D0000B280CD00C280CD00D280CD00E2814BFC0
:1027E0004020302070470C20704710207047142084
:1027F000704718207047202070470000082817D91C
:102800000C280CD910280CD914280CD918280CD94C
:1028100020280CD930288CBF0F200E2070470920AB
:1028200070470A2070470B2070470C2070470D201E
:10283000704700002DE9F843078C072F04461ED986
:10284000D0E9029800254FF6FF73C5F12006A5F1E7
:10285000200029FA05F108FA06F628FA00F03143BB
:102860000143C9B21846FFF763FF0835402D034600
:10287000EBD1E1693A46BDE8F843FFF76BBF4FF68D
:10288000FF70BDE8F883000010B54B6823B9CA8A11
:1028900063F30902CA8210BD04691A681C600361EF
:1028A000C38A013BC3824A60EFE700002DE9F84F7D
:1028B0001D46CB8A0F46C3F309010529814692467E
:1028C0000B4630D00020AAB207F11A049EB2042EA3
:1028D0001FFA80F80FD8904503F1010306D3FB8A55
:1028E0000A4462F30903FB8201201AE01AF800602F
:1028F000E6540130EAE79045F1D2A1F1050B1C2323
:102900007C68BBFBF3F203FB12BB1FFA8BF6002CB7
:1029100045D14846FFF72AFF044638B978606FF082
:102920000200BDE8F88F4FF00008E6E700260660D9
:102930007860ADB24FF0000B454510D90AEB0803A3
:10294000221D13F8011B9155B1B208F101081B2992
:102950001FFA88F82BD0454506F10106F1D8FB8A0D
:10296000C3F30902154465F30903BCE7013292B2CF
:102970001C462368002BF9D16B1F0B441C21B3FBB1
:10298000F1F301339BB29A42D3D2BBF1000FD0D105
:102990004846FFF7EBFE20B9C4F800B0BFE70122BC
:1029A000E7E7C0F800B05E4620600446C1E7454551
:1029B000D5D94846FFF7DAFE08B92060AFE7C0F87E
:1029C00000B0002620600446B6E700002DE9F04F75
:1029D0002DED028B1C4683B05B6901920746884649
:1029E000002B00F0A780238C2BB1E269002A00F0B5
:1029F000A180072B35D807F10C00FFF7B7FE05467D
:102A000038B96FF00205284603B0BDEC028BBDE873
:102A1000F08F14220021FEF753FB228CE16905F1AF
:102A20000800FEF73BFB208C013080B2FFF7E6FE8A
:102A3000FFF7C8FE013880B2208401302874636932
:102A4000228C1B782A4403F01F0363F03F0348F0F5
:102A500000411372384669602946FFF7EFFD0125F2
:102A6000D1E702339BB20722C18A0633B3FBF2F3EC
:102A7000828A521A9BB292B29342C2D800F10C03DE
:102A80004FF0000908EE103A4FF0800A4E464D46CE
:102A900018EE100AFFF76AFE83460028B1D0142210
:102AA0000021FEF70DFB002E3AD1019BABF8083058
:102AB00002220BF1080E1FFA82FC0CF10100BCF19E
:102AC000060F218C80B201D88E422BD3FFF796FEE1
:102AD000FFF778FE62691278013802F01F028E4219
:102AE00008BF4FF0400A42EA49121BFA80F14AEA55
:102AF000020A013048F0004281F808A08BF810006B
:102B0000CBF8042059463846FFF798FD238C013551
:102B1000B3422DB289F001094FF0000AB8D172E733
:102B20000022C6E7E169895D0EF802100136B6B2EF
:102B30000132C0E76FF0010565E70000F8B5154602
:102B40000E463022002104461F46FEF7B9FA069BC6
:102B50006360B5F5001F079BA76034BF6A094FF695
:102B6000FF72A36297B2E66104F1100000239A425B
:102B700006D800230360A782E3822383E360F8BDC5
:102B80000660013330462036F1E7000003781BB9B8
:102B90004BB2002BC8BF017070470000007870472F
:102BA000F8B50C46C969074611B9238C002B37D1FB
:102BB000257E1F2D34D8387828BB228C072A2CD8A4
:102BC000268A36F003032BD14FF6FF70FFF7C2FDC4
:102BD00020F001003102400441EA0561400C41EA65
:102BE00040254FF6FF72234629463846FFF7EEFE92
:102BF000002807DD626913780133DBB21F2B88BF21
:102C000000231370F8BD218A2D0645EA01250543EE
:102C10002046FFF70FFE0246E5E76FF00300F1E7FD
:102C20006FF00100EEE7000070B58AB0044616466A
:102C30000021282268461D46FEF742FABDF83830CA
:102C4000ADF810300F9B05939DF840308DF818308B
:102C5000119B07936946BDF84830ADF820302046F7
:102C6000CDE90265FFF79CFF0AB070BD2DE9F04188
:102C7000D36905460C4616460BB9138C5BBB377EF1
:102C80001F2F28D895F80080B8F1000F26D03046C5
:102C9000FFF7D0FD3378210241EAC33141EA080150
:102CA000338A41EA076141EA03410246334641F073
:102CB00080012846FFF78AFE00280ADD3378012BC1
:102CC00007D1726913780133DBB21F2B88BF002351
:102CD0001370BDE8F0816FF00100FAE76FF00300B8
:102CE000F7E70000F0B58BB004460D46174600210B
:102CF000282268461E46FEF7E3F99DF84C305A1E1E
:102D0000534253418DF800309DF84030ADF81030FB
:102D1000119B05939DF848308DF81830149B07934C
:102D20006A46BDF85430ADF8203029462046CDE93A
:102D30000276FFF79BFF0BB0F0BD0000406A00B1C8
:102D400004307047436A1A68426202691A6003617C
:102D5000C38A013BC38270472DE9F041D0F820803F
:102D6000194E14461D464146002709B9BDE8F081B9
:102D7000D1E90223A21A65EB0303964277EB030322
:102D80001ED2036A8B420DD1FFF77EFD036A1B68DA
:102D9000036203690B60C38A0161016A013BC3825C
:102DA0008846E2E7FFF770FD0B68C8F8003003695A
:102DB0000B60C38A0161013BC382D8F80010D4E7DD
:102DC00088460968D1E700BF80841E002DE9F04FD6
:102DD0008BB00D46DDF8509014469B468046002887
:102DE00000F01981B9F1000F00F01581531E3F2B3F
:102DF00000F21181012A03D1BBF1000F40F00B81D9
:102E00000023CDE90833B8F81430B5EBC30F4FEA0F
:102E1000C30703D300200BB0BDE8F08F2B199F42EE
:102E2000D8F80C303ABF7F1BFFB227461BB9D8F841
:102E30001030002B7AD0272D4ED8C5F12806B74286
:102E40004FF000032CBFF6B23E4600932946D8F857
:102E5000080008AB3246FFF733FCA7EB060A3544FF
:102E60005FFA8AFAB8F8143003F10053053BDB002F
:102E70000493D8F80C3003932821039B13B1BAF1C3
:102E8000000F2CD1D8F8100040B1BAF1000F05D0D6
:102E9000009608AB5246691AFFF712FC38B2002FB1
:102EA000B8D066070AD00AAB03EBD401624211F82E
:102EB000083C02F00702134101F8083C082C3CD9F9
:102EC000102C40F2B580202C40F2B780BBF1000FEF
:102ED00000F09C80082334E0BA460026C2E7049B39
:102EE000E02B28BFE02306930B44AB42059314D993
:102EF0005A1B03980096924534BF5246D2B2691AC3
:102F000008AB04300792FFF7DBFB079A1644AAEBE5
:102F1000020A1544F6B25FFA8AFA049B069A0599EA
:102F20009B1A0493039B1B680393A6E70093D8F8AE
:102F3000080008AB3A462946AEE7BBF1000F13D0B4
:102F40000123B4EBC30F6CD0082C12D89DF82030AD
:102F5000621E23FA02F2D50706D54FF0FF3202FABD
:102F600004F423438DF820309DF8203089F8003098
:102F700051E7102C12D8BDF82030621E23FA02F25D
:102F8000D10706D54FF0FF3202FA04F42343ADF81F
:102F90002030BDF82030A9F800303CE7202C0FD8B5
:102FA0000899631E21FA03F3DA0705D54FF0FF32C3
:102FB00002FA04F40C430894089BC9F800302AE78D
:102FC000402C2BD0DDE90865611EC4F12102A4F17B
:102FD000210326FA01F105FA02F225FA03F311435F
:102FE0001943CB0712D50122A4F12003C4F120011B
:102FF00002FA03F322FA01F1A240524243EA01032A
:1030000063EB430332432B43CDE90823DDE9082377
:10301000C9E90023FFE66FF00100FCE66FF008004D
:10302000F9E6082CA0D9102CB3D9202CEED8C3E790
:10303000BBF1000FADD0022383E7BBF1000FBBD083
:1030400004237EE730B5012A144638BF0124402C02
:1030500085B028BF40240025012ACDE9025518D8A3
:103060001B788DF8083063070AD004AB03EBD40556
:10307000624215F8083C02F00702934005F8083C4C
:10308000009103462246002102A8FFF719FB05B074
:1030900030BD082AE4D9102A03D81B88ADF80830BF
:1030A000E1E7202A8DBFD3E900231B680293CDE915
:1030B0000223D8E710B5CB681BB98B600B618B82FC
:1030C00010BD04691A681C600361C38A013BC38296
:1030D000CA60F0E703064CBFC0F3C030022070475F
:1030E00008B50246FFF7F6FF022806D15306C2F3E1
:1030F0000F2001D100F0030008BDC2F30740FBE739
:103100002DE9F04F93B0CDE903230A680446104639
:10311000FFF7E0FF022814BFC2F306260026002AAC
:103120000D46824680F2F78112F0C04940F0F381EB
:10313000097B002900F0EF81022803D02378B342F5
:1031400040F0EC81C2F304630693104602F07F0363
:103150000593FFF7C5FF059B29444FEA834848EADA
:103160000A4848EA4668CE7800230022CDE90823C1
:10317000F309834648EA0008029367D0059B009351
:1031800002466768534608A92046B847002800F061
:10319000C881276A4FB9414604F10C00FFF7F4FAE1
:1031A000074690B96FF0020054E03B6998450DD096
:1031B0003F68002FF9D1414604F10C00FFF7E4FA13
:1031C00007460028EED0236A3B60276297F817C0B5
:1031D00006F01F08CCF3840CACEB08001FFA80FE4D
:1031E0000028B8BF0EF12000A8EB0C031FFA83FEE5
:1031F000D7E90221B8BF00B2002B0793BEBF0EF182
:1032000020031BB2079352EA010338D0039BDFF877
:1032100024E39A1A049B4FF0000C63EB01019645DE
:103220007CEB01032BD36B7B97F81AE0734519D124
:10323000029B002B78D0012821DC7868F8B9DFF8F0
:10324000F0C2944570EB010316D337E0276A27B923
:103250006FF00C0013B0BDE8F08F3B699845B5D016
:103260003F68F4E7B24890427CEB010301D30020B1
:10327000F0E7029B002BFAD0079B0F2B17DCFA7D9F
:10328000B30002F0030203F07C031343FB753946DD
:103290002046FFF7F9FA6B7BBB76029B3BB9FB7DBF
:1032A000C3F38402013262F38603FB75D0E76A7BC5
:1032B000BB7E9A42DBD1029B002B35D0B309022B97
:1032C00032D0039BBB60049BFB60142200210DA83D
:1032D000FDF7F6FE039B0A93049B0B932B1D0C93A7
:1032E0002B7BADF83EB0013BDBB2ADF83C30069B2A
:1032F0008DF84230059B8DF8433094F82C308DF8D2
:1033000040A083F001038DF844308DF84180A3681C
:103310000AA920469847FB7DC3F38403013303F0D9
:103320001F039B02FB82A2E7FB7DC6F34012B2EBB8
:10333000D31F40F0F980C3F38403434540F0FC8081
:10334000029A2B7BB609002A52D016F0010661D1F1
:10335000032B40F2F480039BBB60049BFB60FB8A61
:1033600066F30903FB822B7BAE1D033BDBB23246C7
:10337000394604F10C00FFF799FA00280CDA3946B7
:103380002046FFF781FAFB7DC3F38403013303F08A
:103390001F039B02FB8205E7DDE90884AB883B83C2
:1033A0004FF6FF73C9F12000A9F1200228FA09F1B4
:1033B00004FA00F0014324FA02F211431846C9B29C
:1033C000FFF7B6F909F10809B9F1400F0346E9D151
:1033D000B8822A7B033AD2B23146FFF7BBF9FB7DB4
:1033E000B882DA43C2F3C01262F3C713FB753EE73B
:1033F00086B92E1D013BDBB23246394604F10C0082
:10340000FFF754FA0028BADB2A7BB88A013AD2B215
:103410003146E2E7F98AC1F30901013B0429DAB236
:103420005BD8281D002307F11B069A4208D910F823
:1034300001CB06F801C0013101330529DBB2F4D11B
:1034400003990A9104990B91934207F11B010C9186
:1034500038BF043379680D9134BF55FA83F30023E4
:103460000E93FB8AADF83EB0C3F309031A44069BE2
:103470008DF84230059B8DF8433094F82C30ADF830
:103480003C2083F001038DF8443000238DF840A0E8
:103490008DF841807B602A7BB88A013A291DFFF7AD
:1034A00059F93B8BB882834203D1A3680AA920460D
:1034B000984720460AA9FFF7FDFDFB7DBA8AC3F3B2
:1034C0008403013303F01F039B02FB823B8B9A4270
:1034D0000CBF00206FF01000BCE67B68002BAFD063
:1034E000052001E01C3033461E68002EFAD1091A6F
:1034F000081D2E1D184401EB090CBCF11B0F5FFACF
:1035000089F39DD89A429BD916F8013B00F8013BFC
:1035100009F10109EFE76FF009009BE66FF00A007F
:1035200098E66FF00B0095E66FF00D0092E600BF95
:1035300040420F0080841E006FF00E008AE66FF09C
:103540000F0087E6EFF3098305494A6B22F0010279
:103550004A63683383F30988002383F31188704733
:1035600000EF00E0302080F3118862B60C4B0D4A6A
:10357000D96821F4E0610904090C0A43DA60D3F840
:10358000FC20094942F08072C3F8FC200A6842F02E
:1035900001020A602022DA7783F82200704700BF18
:1035A00000ED00E00003FA05001000E010B5302344
:1035B00083F311880E4B5B6813F4006314D0F1EEB3
:1035C000103AEFF30984683C4FF08073E361094BD4
:1035D000DB6B236684F3098800F090F810B1064B8A
:1035E000A36110BD054BFBE783F31188F9E700BF2A
:1035F00000ED00E000EF00E03F0300084203000898
:1036000000F1604303F561430901C9B283F8001377
:10361000012200F01F039A4043099B0003F160431D
:1036200003F56143C3F880211A60704700230375D6
:10363000826803691B6899689142FBD25A680360EB
:103640004260106058607047002303758268036908
:103650001B6899689142FBD85A6803604260106009
:103660005860704708B50846302383F311880B7DF6
:10367000032B05D0042B0DD02BB983F3118808BD83
:103680008B6900221A604FF0FF338361FFF7CEFF92
:103690000023F2E7D1E9003213605A60F3E700003B
:1036A000FFF7C4BF054BD9680875186802681A602F
:1036B000536001220275D860FCF72CBE384A002006
:1036C00030B50C4BDD684B1C87B004460FD02B4641
:1036D000094A684600F046F92046FFF7E3FF009BE1
:1036E00013B1684600F048F9A86907B030BDFFF78C
:1036F000D9FFF9E7384A002065360008044B1A68FC
:10370000DB6890689B68984294BF00200120704756
:10371000384A0020084B10B51C68D86822681A6027
:10372000536001222275DC60FFF78EFF01462046C0
:10373000BDE81040FCF7EEBD384A002038B5074C14
:1037400007490848012300252370656000F024FC28
:103750000223237085F3118838BD00BFA04C0020E0
:10376000984B0008384A002008B572B6044B18651B
:1037700000F0E2FA00F08AFB024B03221A70FEE727
:10378000384A0020A04C002000F02CB98B600223A6
:1037900008618B82084670478368A3F1840243F86E
:1037A000142C026943F8442C426943F8402C094A1E
:1037B00043F8242CC26843F8182C022203F80C2C7E
:1037C000002203F80B2C044A43F8102CA3F120002C
:1037D000704700BF2D030008384A002008B5FFF7E6
:1037E000DBFFBDE80840FFF75BBF0000024BDB6872
:1037F00098610F20FFF756BF384A0020302383F32B
:103800001188FFF7F3BF000008B50146302383F3AA
:1038100011880820FFF754FF002383F3118808BDA7
:10382000064BDB6839B1426818605A601360436028
:103830000420FFF745BF4FF0FF307047384A0020A3
:103840000368984206D01A68026050609961184671
:10385000FFF726BF7047000010B503689C68A242BE
:103860000CD85C688A600B604C6021605960996874
:103870008A1A9A604FF0FF33836010BD1B68121BD9
:10388000ECE700000A2938BF0A2170B504460D464E
:103890000A26601900F07AFB00F066FB041BA542C3
:1038A00003D8751C2E460446F3E70A2E04D9BDE85A
:1038B0007040012000F0B0BB70BD0000F8B5144BA3
:1038C0000D46D96103F1100141600A2A196982602D
:1038D00038BF0A22016048601861A818144600F039
:1038E00047FB0A2700F040FB431BA342064606D3D2
:1038F0007C1C281900F04AFB27463546F2E70A2FC0
:1039000004D9BDE8F840012000F086BBF8BD00BF37
:10391000384A0020F8B506460D4600F025FB0F4A50
:10392000134653F8107F9F4206D12A46014630467F
:10393000BDE8F840FFF7C2BFD169BB68441A2C1933
:1039400028BF2C46A34202D92946FFF79BFF2246F7
:1039500031460348BDE8F840FFF77EBF384A0020F3
:10396000484A002010B4C0E9032300235DF8044B4B
:103970004361FFF7CFBF000010B5194C236998428F
:103980000DD0D0E90032816813605A609A680A4409
:103990009A60002303604FF0FF33A36110BD2346FC
:1039A000026843F8102F53600022026022699A4295
:1039B00003D1BDE8104000F0E3BA936881680B447E
:1039C000936000F0D1FA2269E1699268441AA24238
:1039D000E4D91144BDE81040091AFFF753BF00BFF6
:1039E000384A00202DE9F047DFF8BC8008F11007C5
:1039F0002C4ED8F8105000F0B7FAD8F81C40AA683E
:103A0000031B9A423ED81444D5E900324FF0000916
:103A1000C8F81C4013605A60C5F80090D8F8103000
:103A2000B34201D100F0ACFA89F31188D5E9033132
:103A300028469847302383F311886B69002BD8D030
:103A400000F092FA6A69A0EB04094A4582460DD259
:103A5000022000F0E1FA0022D8F81030B34208D179
:103A600051462846BDE8F047FFF728BF121A224406
:103A7000F2E712EB090938BF4A4629463846FFF7F4
:103A8000EBFEB5E7D8F81030B34208D01444211A41
:103A9000C8F81C00A960BDE8F047FFF7F3BEBDE819
:103AA000F08700BF484A0020384A002038B500F0AF
:103AB0005BFA054AD2E90845031B181945F10001D4
:103AC000C2E9080138BD00BF384A00200020704715
:103AD000FEE70000704700004FF0FF307047000025
:103AE000BFF34F8F024AD368DB03FCD4704700BF9B
:103AF000003C024008B5094B1B7873B9FFF7F0FF93
:103B0000074B1A69002ABFBF064A5A6002F1883281
:103B10005A601A6822F480621A6008BDA84C00201E
:103B2000003C02402301674508B50B4B1B7893B955
:103B3000FFF7D6FF094B1A6942F000421A611A6872
:103B400042F480521A601A6822F480521A601A688D
:103B500042F480621A6008BDA84C0020003C02407C
:103B60000728F0B516D80C4C0C4923787BB90C4DBE
:103B70000E4608234FF0006255F8047B46F8042BEC
:103B8000013B13F0FF033A44F6D10123237051F8AF
:103B90002000F0BD0020FCE7CC4C0020AC4C002005
:103BA000A44B0008014B53F820007047A44B0008B9
:103BB00008207047072810B5044601D9002010BD21
:103BC000FFF7CEFF064B53F824301844C21A0BB946
:103BD0000120F4E712680132F0D1043BF6E700BFA0
:103BE000A44B0008072810B5044621D8FFF778FF3A
:103BF000FFF780FF0F4AF323D360C300DBB243F427
:103C0000007343F002031361136943F480331361BB
:103C1000FFF766FFFFF7A4FF074B53F8241000F0EF
:103C200031F9FFF781FF2046BDE81040FFF7C2BF22
:103C3000002010BD003C0240A44B0008F8B512F073
:103C40000103144642D185182E4A954257D82E4B6F
:103C50001B6813F0010352D02C4DFFF74BFFF323E9
:103C6000EB60FFF73DFF40F20127032C15D824F04D
:103C700001046618254C401A40F20117B14223692D
:103C800000EB010524D123F001032361FFF74CFF72
:103C90000120F8BD043C0430E7E78307E7D12B6936
:103CA00023F440732B612B693B432B6151F8046B68
:103CB0000660BFF34F8FFFF713FF03689E42E9D002
:103CC0002B6923F001032B61FFF72EFF0020E0E7B3
:103CD00023F44073236123693B4323610B882B80CA
:103CE000BFF34F8FFFF7FCFE2D8831F8023BADB2DA
:103CF000AB42C3D0236923F001032361E4E71846F4
:103D0000C7E700BF0000080800380240003C02403E
:103D1000084908B50B7828B11BB9FFF7EBFE012362
:103D20000B7008BD002BFCD0BDE808400870FFF701
:103D3000FBBE00BFA84C00200149024800F0A4B817
:103D400000FF0300000100200846114600F07CBE81
:103D5000084600F08FBE000038B5EFF311859DB91D
:103D6000EFF30584C4F30804302334B183F31188DE
:103D7000FFF79CFE85F3118838BD83F31188FFF7A8
:103D800095FE84F3118838BDBDE83840FFF78EBE3C
:103D900038B5FFF7E1FF114C114AC00840EA417005
:103DA000A0FB025EC908A0FB040C1CEB050CA1FBE8
:103DB00004404FF000035B41A1FB02121CEB040C1A
:103DC00043EB000011EB0E0142F10002411842F1F9
:103DD0000000090941EA007038BD00BFCFF753E386
:103DE000A59BC42010B50244064BD2B2904200D12C
:103DF00010BD441C00B253F8200041F8040BE0B29F
:103E0000F4E700BF502800400F4B30B51C6F24046E
:103E100007D41C6F44F400741C671C6F44F4004406
:103E20001C670A4C236843F4807323600244084BE8
:103E3000D2B2904200D130BD441C00B251F8045BB4
:103E400043F82050E0B2F4E7003802400070004030
:103E50005028004007B5012201A90020FFF7C2FF4A
:103E6000019803B05DF804FB13B50446FFF7F2FFB9
:103E7000A04205D0012201A900200194FFF7C4FF50
:103E800002B010BD7047000070470000704700008E
:103E9000074B45F255521A6003225A6040F2FF72F6
:103EA0009A604CF6CC421A60024B01221A7070479D
:103EB00000300040D44C0020034B1B781BB1034B57
:103EC0004AF6AA221A607047D44C00200030004005
:103ED000034B1A681AB9034AD2F874281A6070475B
:103EE000D04C002000300240024B4FF08072C3F8EB
:103EF000742870470030024008B5FFF7E9FF024B15
:103F00001868C0F3407008BDD04C002008B5FFF71A
:103F1000DFFF024B1868C0F3007008BDD04C0020D2
:103F200070470000FEE700000A4B0B480B4A904226
:103F30000BD30B4BDA1C121AC11E22F003028B4268
:103F400038BF00220021FDF7BBB853F8041B40F82E
:103F5000041BECE7584D0008C44F0020C44F00205C
:103F6000C44F002000F0CAB84FF08043586A704731
:103F70004FF08043002258631A610222DA607047D2
:103F80004FF080430022DA60704700004FF080431A
:103F900058637047FEE7000070B51B4B01630025B6
:103FA000044686B0586085620E46FFF7DBFA04F1DE
:103FB0001003C4E904334FF0FF33C4E90635C4E904
:103FC0000044A560E562FFF7CFFF2B460246C4E937
:103FD000082304F134010D4A256580232046FFF7AC
:103FE000D5FB0123E0600A4A0375009272680192D2
:103FF000B268CDE90223074B6846CDE90435FFF7E7
:10400000EDFB06B070BD00BFA04C0020C44B000803
:10401000C94B0008953F0008024AD36A1843D06292
:10402000704700BF384A00204B6843608B6883604C
:10403000CB68C3600B6943614B6903628B69436260
:104040000B6803607047000008B5234B23481A69CA
:1040500042F0FF021A611A6922F0FF021A611A691E
:104060001A6B42F0FF021A631A6D42F0FF021A65E2
:104070001B4A1B6D1146FFF7D7FF02F11C0100F52B
:104080008060FFF7D1FF02F1380100F58060FFF793
:10409000CBFF02F1540100F58060FFF7C5FF02F18C
:1040A000700100F58060FFF7BFFF02F18C0100F5A1
:1040B0008060FFF7B9FF02F1A80100F58060FFF70B
:1040C000B3FF02F1C40100F58060FFF7ADFFBDE86A
:1040D000084000F08DB800BF0038024000000240E8
:1040E000D04B000808B500F019FAFFF727FBBDE830
:1040F0000840FFF7EDBE0000704700000F4B1A6C40
:1041000042F001021A641A6E42F001021A660C4A69
:104110001B6E936843F0010393604FF0804331229C
:104120009A624FF0FF32DA6200229A615A63DA60D3
:104130005A6001225A611A60704700BF003802407D
:10414000002004E04FF0804208B51169D3680B40AD
:10415000D9B2C9439B07116107D5302383F3118876
:10416000FFF712FB002383F3118808BD1E4B1A6969
:1041700062F0FF021A611A69D2B21A614FF0FF3081
:104180001A695A69586100215A6959615A691A6A4B
:1041900062F080521A621A6A02F080521A621A6A37
:1041A0005A6A58625A6A59625A6A1A6C42F08052C4
:1041B0001A641A6E42F080521A661A6E0B4A106820
:1041C00040F480701060186F00F44070B0F5007F0C
:1041D0001EBF4FF4803018671967536823F40073CB
:1041E000536000F073B900BF003802400070004017
:1041F0003B4B3C4A1A643C4A4FF4404111601A68F8
:1042000042F001021A601A689007FCD59A6822F001
:1042100003029A60324B9A6812F00C02FBD11968C3
:1042200001F0F90119609A601A6842F480321A604C
:104230001A689103FCD55A6F42F001025A67284B65
:104240005A6F9207FCD5294A5A601A6842F0807268
:104250001A60254A53685804FCD5214B1A6891010D
:10426000FCD5234AC3F884201A6842F080621A60A1
:104270001A681201FCD51F4A9A600322C3F88C20E9
:104280004FF00062C3F894201B4B1A681B4B9A42F4
:104290001B4B21D11B4A11681B4A91421CD140F291
:1042A00003121A60164A136803F00F03032BFAD1A6
:1042B0000B4B9A6842F002029A609A6802F00C0274
:1042C000082AFAD15A6C42F480425A645A6E42F477
:1042D00080425A665B6E704740F20372E1E700BFAE
:1042E0000038024000040010007000400419400231
:1042F0000830002400948838002004E01164002075
:10430000003C024000ED00E041C20F41074A08B501
:10431000536903F00103536123B1054A13680BB1DC
:1043200050689847BDE80840FFF740B9003C01409D
:10433000D84C0020074A08B5536903F002035361C3
:1043400023B1054A93680BB1D0689847BDE808408F
:10435000FFF72CB9003C0140D84C0020074A08B5B3
:10436000536903F00403536123B1054A13690BB188
:1043700050699847BDE80840FFF718B9003C014074
:10438000D84C0020074A08B5536903F0080353616D
:1043900023B1054A93690BB1D0699847BDE808403D
:1043A000FFF704B9003C0140D84C0020074A08B58B
:1043B000536903F01003536123B1054A136A0BB12B
:1043C000506A9847BDE80840FFF7F0B8003C01404C
:1043D000D84C0020164B10B55C6904F478725A6111
:1043E000A30604D5134A936A0BB1D06A98476006B6
:1043F00004D5104A136B0BB1506B9847210604D5B6
:104400000C4A936B0BB1D06B9847E20504D5094A6F
:10441000136C0BB1506C9847A30504D5054A936CF7
:104420000BB1D06C9847BDE81040FFF7BFB800BF94
:10443000003C0140D84C0020194B10B55C6904F4D5
:104440007C425A61620504D5164A136D0BB1506D5A
:104450009847230504D5134A936D0BB1D06D984747
:10446000E00404D50F4A136E0BB1506E9847A104B7
:1044700004D50C4A936E0BB1D06E9847620404D5F4
:10448000084A136F0BB1506F9847230404D5054AAF
:10449000936F0BB1D06F9847BDE81040FFF786B817
:1044A000003C0140D84C002008B5034800F0E8F873
:1044B000BDE80840FFF77AB8584D002008B5FFF76F
:1044C00041FEBDE80840FFF771B80000062108B5BD
:1044D0000846FFF795F806210720FFF791F8062117
:1044E0000820FFF78DF806210920FFF789F806213B
:1044F0000A20FFF785F806211720FFF781F806212B
:104500002820FFF77DF807211C20FFF779F8BDE888
:1045100008400C212620FFF773B8000008B5FFF70C
:1045200025FE00F07BF800F03DF8FFF7E5FDBDE863
:104530000840FFF717BD000002684368114301609F
:1045400003B1184770470000143000F0C5B90000EF
:104550004FF0FF33143000F0BFB90000383000F0E6
:104560003BBA00004FF0FF33383000F035BA00009E
:10457000143000F08BB900004FF0FF31143000F020
:1045800085B90000383000F0E5B900004FF0FF3287
:10459000383000F0DFB90000012914BF6FF01300BC
:1045A0000020704700F058B837B515460E4A026033
:1045B00000224260C0E902220122044602740B4636
:1045C000009000F15C014FF48072143000F034F977
:1045D00000942B464FF4807204F5AE7104F138005C
:1045E00000F0ACF903B030BDB04C000838B5C36979
:1045F00004460D461BB904210844FFF79DFF2946D8
:1046000004F1140000F026F9002806DA201D4FF40A
:104610000061BDE83840FFF78FBF38BD0023054A71
:1046200019460133102BC2E9001102F10802F8D13A
:10463000704700BFD84C00200268436811430160F6
:1046400003B1184770470000024AD36843F0C00323
:10465000D36070470044004010B5054C054A002166
:104660002046FFF7A1FF044A044BC4E9972310BD7D
:10467000584D0020494600080044004040787D0124
:104680002DE9F041D0F85C62F7683368DA0504463A
:104690009DB20DD5302383F311884FF4806104302F
:1046A000FFF7CAFF6FF480733360002383F3118830
:1046B000302383F3118804F1040815F02F033AD155
:1046C00083F31188380615D5290613D5302383F3D3
:1046D000118804F1380000F065F900284EDA08214D
:1046E000201DFFF7A9FF4FF67F733B40F3600023C7
:1046F00083F311887A0616D56B0614D5302383F31D
:104700001188D4E913239A420AD1236C43B127F0CC
:1047100040073F041021201D3F0CFFF78DFFF7607D
:10472000002383F31188D4F86822D36843B3BDE82B
:10473000F041106918472B0714D015F0080F0CBF73
:1047400000214FF48071E80748BF41F02001AA071B
:1047500048BF41F040016B0748BF41F0800140462F
:10476000FFF76AFFAD06736805D594F8641220461A
:104770001940FFF73BFF3568ADB29EE77060B6E7C2
:10478000BDE8F081F8B5154682680669AA420B4675
:10479000816938BF8568761AB54204460BD218463F
:1047A0002A46FCF77BFCA3692B44A361A3685B1B2F
:1047B000A3602846F8BD0CD918463246FCF76EFCBB
:1047C000AF1BE1683A463044FCF768FCE3683B44C1
:1047D000EBE718462A46FCF761FCE368E5E70000D2
:1047E00083689342F7B51546044638BF8568D0E91B
:1047F0000460361AB5420BD22A46FCF74FFC6369B7
:104800002B446361A36828465B1BA36003B0F0BD23
:104810000DD932460191FCF741FC0199E068AF1BCC
:104820003A463144FCF73AFCE3683B44E9E72A4660
:10483000FCF734FCE368E4E710B50A440024C361E4
:10484000029B8460C0E90000C0E90511C1600261FB
:10485000036210BD08B5D0E90532934201D18268E8
:1048600082B98268013282605A1C42611970D0E9B3
:1048700004329A4224BFC36843610021FEF7E0FF7F
:10488000002008BD4FF0FF30FBE7000070B530237B
:1048900004460E4683F31188A568A5B1A368A269F2
:1048A000013BA360531CA36115782269934224BF86
:1048B000E368A361E3690BB120469847002383F3C3
:1048C0001188284607E031462046FEF7A9FF002858
:1048D000E2DA85F3118870BD2DE9F74F04460E46E4
:1048E00017469846D0F81C904FF0300A8AF311888A
:1048F0004FF0000B154665B12A4631462046FFF7BA
:1049000041FF034660B941462046FEF789FF002873
:10491000F1D0002383F31188781B03B0BDE8F08F3A
:10492000B9F1000F03D001902046C847019B8BF3DB
:104930001188ED1A1E448AF31188DCE7C0E90511DD
:10494000C160C3611144009B8260C0E90000016145
:1049500003627047F8B504460D461646302383F3CC
:104960001188A768A7B1A368013BA36063695A1CBB
:1049700062611D70D4E904329A4224BFE368636126
:10498000E3690BB120469847002080F3118807E0C7
:1049900031462046FEF744FF0028E2DA87F311880B
:1049A000F8BD0000D0E905239A4210B501D1826814
:1049B0007AB98268013282605A1C82611C7803696C
:1049C0009A4224BFC36883610021FEF739FF204665
:1049D00010BD4FF0FF30FBE72DE9F74F04460E46C0
:1049E00017469846D0F81C904FF0300A8AF3118889
:1049F0004FF0000B154665B12A4631462046FFF7B9
:104A0000EFFE034660B941462046FEF709FF002845
:104A1000F1D0002383F31188781B03B0BDE8F08F39
:104A2000B9F1000F03D001902046C847019B8BF3DA
:104A30001188ED1A1E448AF31188DCE70B46014603
:104A4000184600F009B80000024B0A4601461868F3
:104A5000FFF77AB91C23002010B5054C13462CB182
:104A60000A4601460220AFF3008010BD2046FCE755
:104A700000000000024B01461868FFF769B900BF4B
:104A80001C23002010B501390244904201D10020BE
:104A900005E0037811F8014FA34201D0181B10BDA7
:104AA0000130F2E72DE9F041A3B1C91A17780144AA
:104AB000044603F1FF3C8C42204601D9002009E066
:104AC0000578BD4204F10104F5D10CEB0405D618BC
:104AD000A54201D1BDE8F08115F8018D16F801ED70
:104AE000F045F5D0E7E70000034611F8012B03F885
:104AF000012B002AF9D170476F72672E61726475BD
:104B000070696C6F742E4F5054494D55535F475028
:104B10005300000040A2E4F1646891060041A3E55F
:104B2000F2656992070000004261642043414E49EA
:104B30006661636520696E6465782E008000000000
:104B40000080000000008000000000000000000065
:104B500099190008DD21000839210008D919000839
:104B6000E5190008F11B0008A9190008B919000887
:104B7000AD190008B5190008B11900080D1B00088F
:104B8000BD1900080D250008B1240008CD19000842
:104B9000E11A000863300000944B0008904A00209E
:104BA000A04C002000400000004000000040000039
:104BB00000400000000001000000020000000200B0
:104BC000000002006D61696E0069646C65000000A0
:104BD000A000902A00000000AAAAAAAA500000245F
:104BE000FFFB0000007700000090090001000005B5
:104BF00000000000AAAAAAA501000080FFCF0000C3
:104C000000000000000000000000000000000000A4
:104C1000AAAAAAAA00000000FFFF000000000000EE
:104C2000000000000000000000000000AAAAAAAADC
:104C300000000000FFFF0000000000000000000076
:104C40000000000000000000AAAAAAAA00000000BC
:104C5000FFFF000000000000000000000000000056
:104C600000000000AAAAAAAA00000000FFFF00009E
:104C70000000000000000000000000000000000034
:104C8000AAAAAAAA00000000FFFF0000000000007E
:104C90000000000000000000000000000A0000000A
:104CA0000000000003000000000000000000000001
:104CB0000000000065450008514500088D450008CA
:104CC0007945000885450008714500085D450008E4
:104CD0004945000899450008510000000000000007
:104CE000000007000000000040420F00FE2A010003
:104CF000D20400002023002000000000000000007B
:104D000000000000000000000000000000000000A3
:104D10000000000000000000000000000000000093
:104D20000000000000000000000000000000000083
:104D30000000000000000000000000000000000073
:104D40000000000000000000000000000000000063
:084D500000000000000000005B
:00000001FF
